{
  "contractName": "EPOS",
  "abi": [
    {
      "inputs": [
        {
          "internalType": "string",
          "name": "SYMBOL",
          "type": "string"
        },
        {
          "internalType": "string",
          "name": "NAME",
          "type": "string"
        },
        {
          "internalType": "uint8",
          "name": "DECIMALS",
          "type": "uint8"
        }
      ],
      "stateMutability": "nonpayable",
      "type": "constructor"
    },
    {
      "anonymous": false,
      "inputs": [
        {
          "indexed": true,
          "internalType": "address",
          "name": "from",
          "type": "address"
        },
        {
          "indexed": false,
          "internalType": "uint256",
          "name": "value",
          "type": "uint256"
        }
      ],
      "name": "Burn",
      "type": "event"
    },
    {
      "anonymous": false,
      "inputs": [
        {
          "indexed": true,
          "internalType": "address",
          "name": "previousOwner",
          "type": "address"
        },
        {
          "indexed": true,
          "internalType": "address",
          "name": "newOwner",
          "type": "address"
        }
      ],
      "name": "OwnershipTransferred",
      "type": "event"
    },
    {
      "anonymous": false,
      "inputs": [
        {
          "indexed": true,
          "internalType": "address",
          "name": "from",
          "type": "address"
        },
        {
          "indexed": true,
          "internalType": "address",
          "name": "to",
          "type": "address"
        },
        {
          "indexed": false,
          "internalType": "uint256",
          "name": "value",
          "type": "uint256"
        }
      ],
      "name": "Transfer",
      "type": "event"
    },
    {
      "inputs": [],
      "name": "MaxFee",
      "outputs": [
        {
          "internalType": "uint256",
          "name": "",
          "type": "uint256"
        }
      ],
      "stateMutability": "view",
      "type": "function",
      "constant": true
    },
    {
      "inputs": [],
      "name": "Max_Token",
      "outputs": [
        {
          "internalType": "uint256",
          "name": "",
          "type": "uint256"
        }
      ],
      "stateMutability": "view",
      "type": "function",
      "constant": true
    },
    {
      "inputs": [
        {
          "internalType": "address",
          "name": "",
          "type": "address"
        },
        {
          "internalType": "address",
          "name": "",
          "type": "address"
        }
      ],
      "name": "allowance",
      "outputs": [
        {
          "internalType": "uint256",
          "name": "",
          "type": "uint256"
        }
      ],
      "stateMutability": "view",
      "type": "function",
      "constant": true
    },
    {
      "inputs": [
        {
          "internalType": "address",
          "name": "",
          "type": "address"
        }
      ],
      "name": "balanceOf",
      "outputs": [
        {
          "internalType": "uint256",
          "name": "",
          "type": "uint256"
        }
      ],
      "stateMutability": "view",
      "type": "function",
      "constant": true
    },
    {
      "inputs": [
        {
          "internalType": "address",
          "name": "",
          "type": "address"
        }
      ],
      "name": "blackListMap",
      "outputs": [
        {
          "internalType": "bool",
          "name": "",
          "type": "bool"
        }
      ],
      "stateMutability": "view",
      "type": "function",
      "constant": true
    },
    {
      "inputs": [],
      "name": "decimals",
      "outputs": [
        {
          "internalType": "uint8",
          "name": "",
          "type": "uint8"
        }
      ],
      "stateMutability": "view",
      "type": "function",
      "constant": true
    },
    {
      "inputs": [],
      "name": "name",
      "outputs": [
        {
          "internalType": "string",
          "name": "",
          "type": "string"
        }
      ],
      "stateMutability": "view",
      "type": "function",
      "constant": true
    },
    {
      "inputs": [],
      "name": "owner",
      "outputs": [
        {
          "internalType": "address",
          "name": "",
          "type": "address"
        }
      ],
      "stateMutability": "view",
      "type": "function",
      "constant": true
    },
    {
      "inputs": [],
      "name": "symbol",
      "outputs": [
        {
          "internalType": "string",
          "name": "",
          "type": "string"
        }
      ],
      "stateMutability": "view",
      "type": "function",
      "constant": true
    },
    {
      "inputs": [],
      "name": "totalSupply",
      "outputs": [
        {
          "internalType": "uint256",
          "name": "",
          "type": "uint256"
        }
      ],
      "stateMutability": "view",
      "type": "function",
      "constant": true
    },
    {
      "inputs": [
        {
          "internalType": "address",
          "name": "newOwner",
          "type": "address"
        }
      ],
      "name": "transferOwnership",
      "outputs": [],
      "stateMutability": "nonpayable",
      "type": "function"
    },
    {
      "inputs": [
        {
          "internalType": "address",
          "name": "_to",
          "type": "address"
        },
        {
          "internalType": "uint256",
          "name": "_value",
          "type": "uint256"
        }
      ],
      "name": "transfer",
      "outputs": [
        {
          "internalType": "bool",
          "name": "",
          "type": "bool"
        }
      ],
      "stateMutability": "nonpayable",
      "type": "function"
    },
    {
      "inputs": [
        {
          "internalType": "address",
          "name": "_from",
          "type": "address"
        },
        {
          "internalType": "address",
          "name": "_to",
          "type": "address"
        },
        {
          "internalType": "uint256",
          "name": "_value",
          "type": "uint256"
        }
      ],
      "name": "transferFrom",
      "outputs": [
        {
          "internalType": "bool",
          "name": "success",
          "type": "bool"
        }
      ],
      "stateMutability": "nonpayable",
      "type": "function"
    },
    {
      "inputs": [
        {
          "internalType": "address",
          "name": "_spender",
          "type": "address"
        },
        {
          "internalType": "uint256",
          "name": "_value",
          "type": "uint256"
        }
      ],
      "name": "approve",
      "outputs": [
        {
          "internalType": "bool",
          "name": "success",
          "type": "bool"
        }
      ],
      "stateMutability": "nonpayable",
      "type": "function"
    },
    {
      "inputs": [
        {
          "internalType": "uint256",
          "name": "_value",
          "type": "uint256"
        }
      ],
      "name": "burn",
      "outputs": [
        {
          "internalType": "bool",
          "name": "success",
          "type": "bool"
        }
      ],
      "stateMutability": "nonpayable",
      "type": "function"
    },
    {
      "inputs": [
        {
          "internalType": "address",
          "name": "_to",
          "type": "address"
        },
        {
          "internalType": "uint256",
          "name": "_value",
          "type": "uint256"
        }
      ],
      "name": "mint",
      "outputs": [
        {
          "internalType": "bool",
          "name": "success",
          "type": "bool"
        }
      ],
      "stateMutability": "payable",
      "type": "function",
      "payable": true
    },
    {
      "inputs": [
        {
          "internalType": "address",
          "name": "_blackListAddress",
          "type": "address"
        }
      ],
      "name": "addBlacklist",
      "outputs": [],
      "stateMutability": "nonpayable",
      "type": "function"
    },
    {
      "inputs": [
        {
          "internalType": "address",
          "name": "_blackListAddress",
          "type": "address"
        }
      ],
      "name": "removeBlacklist",
      "outputs": [],
      "stateMutability": "nonpayable",
      "type": "function"
    },
    {
      "inputs": [
        {
          "internalType": "uint256",
          "name": "_MaxFee",
          "type": "uint256"
        }
      ],
      "name": "updateMaxFee",
      "outputs": [],
      "stateMutability": "nonpayable",
      "type": "function"
    },
    {
      "inputs": [
        {
          "internalType": "address",
          "name": "_blackListAddress",
          "type": "address"
        }
      ],
      "name": "destroyBlackFunds",
      "outputs": [],
      "stateMutability": "nonpayable",
      "type": "function"
    },
    {
      "inputs": [],
      "name": "getLatestPrice",
      "outputs": [
        {
          "internalType": "int256",
          "name": "",
          "type": "int256"
        }
      ],
      "stateMutability": "view",
      "type": "function",
      "constant": true
    },
    {
      "inputs": [
        {
          "internalType": "uint256",
          "name": "dollar",
          "type": "uint256"
        }
      ],
      "name": "getBNB",
      "outputs": [
        {
          "internalType": "uint256",
          "name": "",
          "type": "uint256"
        }
      ],
      "stateMutability": "view",
      "type": "function",
      "constant": true
    }
  ],
  "bytecode": "0x6080604052600a6002556001600b60006101000a81548160ff0219169083151502179055503480156200003157600080fd5b5060405162002879380380620028798339818101604052810190620000579190620002c7565b738a753747a1fa494ec906ce90e9f37563a8af630e600160006101000a81548173ffffffffffffffffffffffffffffffffffffffff021916908373ffffffffffffffffffffffffffffffffffffffff160217905550336000806101000a81548173ffffffffffffffffffffffffffffffffffffffff021916908373ffffffffffffffffffffffffffffffffffffffff16021790555082600490805190602001906200010492919062000182565b5081600390805190602001906200011d92919062000182565b5080600560006101000a81548160ff021916908360ff160217905550600560009054906101000a900460ff1660ff16600a6200015a91906200041b565b60078190555060075462030d4062000173919062000558565b6008819055505050506200074b565b828054620001909062000606565b90600052602060002090601f016020900481019282620001b4576000855562000200565b82601f10620001cf57805160ff191683800117855562000200565b8280016001018555821562000200579182015b82811115620001ff578251825591602001919060010190620001e2565b5b5090506200020f919062000213565b5090565b5b808211156200022e57600081600090555060010162000214565b5090565b60006200024962000243846200038a565b62000361565b90508281526020810184848401111562000268576200026762000704565b5b62000275848285620005d0565b509392505050565b600082601f830112620002955762000294620006ff565b5b8151620002a784826020860162000232565b91505092915050565b600081519050620002c18162000731565b92915050565b600080600060608486031215620002e357620002e26200070e565b5b600084015167ffffffffffffffff81111562000304576200030362000709565b5b62000312868287016200027d565b935050602084015167ffffffffffffffff81111562000336576200033562000709565b5b62000344868287016200027d565b92505060406200035786828701620002b0565b9150509250925092565b60006200036d62000380565b90506200037b82826200063c565b919050565b6000604051905090565b600067ffffffffffffffff821115620003a857620003a7620006d0565b5b620003b38262000713565b9050602081019050919050565b6000808291508390505b60018511156200041257808604811115620003ea57620003e962000672565b5b6001851615620003fa5780820291505b80810290506200040a8562000724565b9450620003ca565b94509492505050565b60006200042882620005b9565b91506200043583620005b9565b9250620004647fffffffffffffffffffffffffffffffffffffffffffffffffffffffffffffffff84846200046c565b905092915050565b6000826200047e576001905062000551565b816200048e576000905062000551565b8160018114620004a75760028114620004b257620004e8565b600191505062000551565b60ff841115620004c757620004c662000672565b5b8360020a915084821115620004e157620004e062000672565b5b5062000551565b5060208310610133831016604e8410600b8410161715620005225782820a9050838111156200051c576200051b62000672565b5b62000551565b620005318484846001620003c0565b925090508184048111156200054b576200054a62000672565b5b81810290505b9392505050565b60006200056582620005b9565b91506200057283620005b9565b9250817fffffffffffffffffffffffffffffffffffffffffffffffffffffffffffffffff0483118215151615620005ae57620005ad62000672565b5b828202905092915050565b6000819050919050565b600060ff82169050919050565b60005b83811015620005f0578082015181840152602081019050620005d3565b8381111562000600576000848401525b50505050565b600060028204905060018216806200061f57607f821691505b60208210811415620006365762000635620006a1565b5b50919050565b620006478262000713565b810181811067ffffffffffffffff82111715620006695762000668620006d0565b5b80604052505050565b7f4e487b7100000000000000000000000000000000000000000000000000000000600052601160045260246000fd5b7f4e487b7100000000000000000000000000000000000000000000000000000000600052602260045260246000fd5b7f4e487b7100000000000000000000000000000000000000000000000000000000600052604160045260246000fd5b600080fd5b600080fd5b600080fd5b600080fd5b6000601f19601f8301169050919050565b60008160011c9050919050565b6200073c81620005c3565b81146200074857600080fd5b50565b61211e806200075b6000396000f3fe6080604052600436106101355760003560e01c8063845fd946116100ab578063a9059cbb1161006f578063a9059cbb14610457578063dd62ed3e14610494578063e3ca8ad5146104d1578063eb91e651146104fc578063f2fde38b14610525578063f3bdc2281461054e57610135565b8063845fd946146103825780638da5cb5b146103ad5780638e15f473146103d857806395d89b41146104035780639cfe42da1461042e57610135565b806323b872dd116100fd57806323b872dd14610247578063313ce5671461028457806340c10f19146102af57806342966c68146102df578063550dddeb1461031c57806370a082311461034557610135565b806306fdde031461013a578063095ea7b3146101655780630aaaef74146101a2578063146b5966146101df57806318160ddd1461021c575b600080fd5b34801561014657600080fd5b5061014f610577565b60405161015c9190611baa565b60405180910390f35b34801561017157600080fd5b5061018c6004803603810190610187919061191b565b610605565b6040516101999190611b74565b60405180910390f35b3480156101ae57600080fd5b506101c960048036038101906101c4919061185b565b610692565b6040516101d69190611b74565b60405180910390f35b3480156101eb57600080fd5b506102066004803603810190610201919061195b565b6106b2565b6040516102139190611c8c565b60405180910390f35b34801561022857600080fd5b506102316106d9565b60405161023e9190611c8c565b60405180910390f35b34801561025357600080fd5b5061026e600480360381019061026991906118c8565b6106df565b60405161027b9190611b74565b60405180910390f35b34801561029057600080fd5b50610299610849565b6040516102a69190611ca7565b60405180910390f35b6102c960048036038101906102c4919061191b565b61085c565b6040516102d69190611b74565b60405180910390f35b3480156102eb57600080fd5b506103066004803603810190610301919061195b565b610a78565b6040516103139190611b74565b60405180910390f35b34801561032857600080fd5b50610343600480360381019061033e919061195b565b610c34565b005b34801561035157600080fd5b5061036c6004803603810190610367919061185b565b610ccc565b6040516103799190611c8c565b60405180910390f35b34801561038e57600080fd5b50610397610ce4565b6040516103a49190611c8c565b60405180910390f35b3480156103b957600080fd5b506103c2610cea565b6040516103cf9190611b59565b60405180910390f35b3480156103e457600080fd5b506103ed610d0e565b6040516103fa9190611b8f565b60405180910390f35b34801561040f57600080fd5b50610418610dbe565b6040516104259190611baa565b60405180910390f35b34801561043a57600080fd5b506104556004803603810190610450919061185b565b610e4c565b005b34801561046357600080fd5b5061047e6004803603810190610479919061191b565b610f35565b60405161048b9190611b74565b60405180910390f35b3480156104a057600080fd5b506104bb60048036038101906104b69190611888565b610f4c565b6040516104c89190611c8c565b60405180910390f35b3480156104dd57600080fd5b506104e6610f71565b6040516104f39190611c8c565b60405180910390f35b34801561050857600080fd5b50610523600480360381019061051e919061185b565b610f77565b005b34801561053157600080fd5b5061054c6004803603810190610547919061185b565b611060565b005b34801561055a57600080fd5b506105756004803603810190610570919061185b565b6111e5565b005b6003805461058490611e9b565b80601f01602080910402602001604051908101604052809291908181526020018280546105b090611e9b565b80156105fd5780601f106105d2576101008083540402835291602001916105fd565b820191906000526020600020905b8154815290600101906020018083116105e057829003601f168201915b505050505081565b600081600d60003373ffffffffffffffffffffffffffffffffffffffff1673ffffffffffffffffffffffffffffffffffffffff16815260200190815260200160002060008573ffffffffffffffffffffffffffffffffffffffff1673ffffffffffffffffffffffffffffffffffffffff168152602001908152602001600020819055506001905092915050565b60096020528060005260406000206000915054906101000a900460ff1681565b6000806106bd610d0e565b9050600083826106cd9190611d34565b90508092505050919050565b60065481565b6000600d60008573ffffffffffffffffffffffffffffffffffffffff1673ffffffffffffffffffffffffffffffffffffffff16815260200190815260200160002060003373ffffffffffffffffffffffffffffffffffffffff1673ffffffffffffffffffffffffffffffffffffffff168152602001908152602001600020548211156107a0576040517f08c379a000000000000000000000000000000000000000000000000000000000815260040161079790611bcc565b60405180910390fd5b81600d60008673ffffffffffffffffffffffffffffffffffffffff1673ffffffffffffffffffffffffffffffffffffffff16815260200190815260200160002060003373ffffffffffffffffffffffffffffffffffffffff1673ffffffffffffffffffffffffffffffffffffffff168152602001908152602001600020600082825461082c9190611dbf565b9250508190555061083e84848461144e565b600190509392505050565b600560009054906101000a900460ff1681565b60008160065461086c9190611cde565b600854101561087a57600080fd5b600b60009054906101000a900460ff166108c9576040517f08c379a00000000000000000000000000000000000000000000000000000000081526004016108c090611c0c565b60405180910390fd5b60006108d4836106b2565b905034811015610919576040517f08c379a000000000000000000000000000000000000000000000000000000000815260040161091090611c6c565b60405180910390fd5b826006546109279190611cde565b600854141561094c576000600b60006101000a81548160ff0219169083151502179055505b82600c60008673ffffffffffffffffffffffffffffffffffffffff1673ffffffffffffffffffffffffffffffffffffffff168152602001908152602001600020600082825461099b9190611cde565b9250508190555082600660008282546109b49190611cde565b9250508190555082600c60008673ffffffffffffffffffffffffffffffffffffffff1673ffffffffffffffffffffffffffffffffffffffff168152602001908152602001600020541015610a0757600080fd5b8373ffffffffffffffffffffffffffffffffffffffff16600073ffffffffffffffffffffffffffffffffffffffff167fddf252ad1be2c89b69c2b068fc378daa952ba7f163c4a11628f55a4df523b3ef85604051610a659190611c8c565b60405180910390a3600191505092915050565b60008060009054906101000a900473ffffffffffffffffffffffffffffffffffffffff1673ffffffffffffffffffffffffffffffffffffffff163373ffffffffffffffffffffffffffffffffffffffff1614610b09576040517f08c379a0000000000000000000000000000000000000000000000000000000008152600401610b0090611bec565b60405180910390fd5b81600c60003373ffffffffffffffffffffffffffffffffffffffff1673ffffffffffffffffffffffffffffffffffffffff168152602001908152602001600020541015610b5557600080fd5b81600c60003373ffffffffffffffffffffffffffffffffffffffff1673ffffffffffffffffffffffffffffffffffffffff1681526020019081526020016000206000828254610ba49190611dbf565b925050819055508160086000828254610bbd9190611dbf565b925050819055508160066000828254610bd69190611dbf565b925050819055503373ffffffffffffffffffffffffffffffffffffffff167fcc16f5dbb4873280815c1ee09dbd06736cffcc184412cf7a71a0fdb75d397ca583604051610c239190611c8c565b60405180910390a260019050919050565b60008054906101000a900473ffffffffffffffffffffffffffffffffffffffff1673ffffffffffffffffffffffffffffffffffffffff163373ffffffffffffffffffffffffffffffffffffffff1614610cc2576040517f08c379a0000000000000000000000000000000000000000000000000000000008152600401610cb990611c4c565b60405180910390fd5b80600a8190555050565b600c6020528060005260406000206000915090505481565b60085481565b60008054906101000a900473ffffffffffffffffffffffffffffffffffffffff1681565b600080600160009054906101000a900473ffffffffffffffffffffffffffffffffffffffff1673ffffffffffffffffffffffffffffffffffffffff1663feaf968c6040518163ffffffff1660e01b815260040160a06040518083038186803b158015610d7957600080fd5b505afa158015610d8d573d6000803e3d6000fd5b505050506040513d601f19601f82011682018060405250810190610db19190611988565b5050509150508091505090565b60048054610dcb90611e9b565b80601f0160208091040260200160405190810160405280929190818152602001828054610df790611e9b565b8015610e445780601f10610e1957610100808354040283529160200191610e44565b820191906000526020600020905b815481529060010190602001808311610e2757829003601f168201915b505050505081565b60008054906101000a900473ffffffffffffffffffffffffffffffffffffffff1673ffffffffffffffffffffffffffffffffffffffff163373ffffffffffffffffffffffffffffffffffffffff1614610eda576040517f08c379a0000000000000000000000000000000000000000000000000000000008152600401610ed190611c4c565b60405180910390fd5b6001600960008373ffffffffffffffffffffffffffffffffffffffff1673ffffffffffffffffffffffffffffffffffffffff16815260200190815260200160002060006101000a81548160ff02191690831515021790555050565b6000610f4233848461144e565b6001905092915050565b600d602052816000526040600020602052806000526040600020600091509150505481565b600a5481565b60008054906101000a900473ffffffffffffffffffffffffffffffffffffffff1673ffffffffffffffffffffffffffffffffffffffff163373ffffffffffffffffffffffffffffffffffffffff1614611005576040517f08c379a0000000000000000000000000000000000000000000000000000000008152600401610ffc90611c4c565b60405180910390fd5b6000600960008373ffffffffffffffffffffffffffffffffffffffff1673ffffffffffffffffffffffffffffffffffffffff16815260200190815260200160002060006101000a81548160ff02191690831515021790555050565b60008054906101000a900473ffffffffffffffffffffffffffffffffffffffff1673ffffffffffffffffffffffffffffffffffffffff163373ffffffffffffffffffffffffffffffffffffffff16146110ee576040517f08c379a00000000000000000000000000000000000000000000000000000000081526004016110e590611c4c565b60405180910390fd5b600073ffffffffffffffffffffffffffffffffffffffff168173ffffffffffffffffffffffffffffffffffffffff16141561112857600080fd5b8073ffffffffffffffffffffffffffffffffffffffff1660008054906101000a900473ffffffffffffffffffffffffffffffffffffffff1673ffffffffffffffffffffffffffffffffffffffff167f8be0079c531659141344cd1fd0a4f28419497f9722a3daafe3b4186f6b6457e060405160405180910390a3806000806101000a81548173ffffffffffffffffffffffffffffffffffffffff021916908373ffffffffffffffffffffffffffffffffffffffff16021790555050565b60008054906101000a900473ffffffffffffffffffffffffffffffffffffffff1673ffffffffffffffffffffffffffffffffffffffff163373ffffffffffffffffffffffffffffffffffffffff1614611273576040517f08c379a000000000000000000000000000000000000000000000000000000000815260040161126a90611c4c565b60405180910390fd5b600960008273ffffffffffffffffffffffffffffffffffffffff1673ffffffffffffffffffffffffffffffffffffffff16815260200190815260200160002060009054906101000a900460ff166112c957600080fd5b600c60008273ffffffffffffffffffffffffffffffffffffffff1673ffffffffffffffffffffffffffffffffffffffff168152602001908152602001600020546008600082825461131a9190611dbf565b92505081905550600c60008273ffffffffffffffffffffffffffffffffffffffff1673ffffffffffffffffffffffffffffffffffffffff16815260200190815260200160002054600660008282546113729190611dbf565b925050819055506000600c60008373ffffffffffffffffffffffffffffffffffffffff1673ffffffffffffffffffffffffffffffffffffffff168152602001908152602001600020819055508073ffffffffffffffffffffffffffffffffffffffff167fcc16f5dbb4873280815c1ee09dbd06736cffcc184412cf7a71a0fdb75d397ca5600c60008473ffffffffffffffffffffffffffffffffffffffff1673ffffffffffffffffffffffffffffffffffffffff168152602001908152602001600020546040516114439190611c8c565b60405180910390a250565b600960008473ffffffffffffffffffffffffffffffffffffffff1673ffffffffffffffffffffffffffffffffffffffff16815260200190815260200160002060009054906101000a900460ff16156114db576040517f08c379a00000000000000000000000000000000000000000000000000000000081526004016114d290611c2c565b60405180910390fd5b600960008373ffffffffffffffffffffffffffffffffffffffff1673ffffffffffffffffffffffffffffffffffffffff16815260200190815260200160002060009054906101000a900460ff1615611568576040517f08c379a000000000000000000000000000000000000000000000000000000000815260040161155f90611c2c565b60405180910390fd5b600073ffffffffffffffffffffffffffffffffffffffff168273ffffffffffffffffffffffffffffffffffffffff1614156115a257600080fd5b60006402540be40082600a546115b89190611d65565b6115c29190611d34565b9050600081836115d29190611dbf565b905082600c60008773ffffffffffffffffffffffffffffffffffffffff1673ffffffffffffffffffffffffffffffffffffffff16815260200190815260200160002060008282546116239190611dbf565b9250508190555080600c60008673ffffffffffffffffffffffffffffffffffffffff1673ffffffffffffffffffffffffffffffffffffffff16815260200190815260200160002060008282546116799190611cde565b9250508190555060008211156117865781600c60008060009054906101000a900473ffffffffffffffffffffffffffffffffffffffff1673ffffffffffffffffffffffffffffffffffffffff1673ffffffffffffffffffffffffffffffffffffffff16815260200190815260200160002060008282546116f99190611cde565b9250508190555060008054906101000a900473ffffffffffffffffffffffffffffffffffffffff1673ffffffffffffffffffffffffffffffffffffffff168573ffffffffffffffffffffffffffffffffffffffff167fddf252ad1be2c89b69c2b068fc378daa952ba7f163c4a11628f55a4df523b3ef8460405161177d9190611c8c565b60405180910390a35b8373ffffffffffffffffffffffffffffffffffffffff168573ffffffffffffffffffffffffffffffffffffffff167fddf252ad1be2c89b69c2b068fc378daa952ba7f163c4a11628f55a4df523b3ef836040516117e39190611c8c565b60405180910390a35050505050565b6000813590506118018161208c565b92915050565b600081519050611816816120a3565b92915050565b60008135905061182b816120ba565b92915050565b600081519050611840816120ba565b92915050565b600081519050611855816120d1565b92915050565b60006020828403121561187157611870611f5a565b5b600061187f848285016117f2565b91505092915050565b6000806040838503121561189f5761189e611f5a565b5b60006118ad858286016117f2565b92505060206118be858286016117f2565b9150509250929050565b6000806000606084860312156118e1576118e0611f5a565b5b60006118ef868287016117f2565b9350506020611900868287016117f2565b92505060406119118682870161181c565b9150509250925092565b6000806040838503121561193257611931611f5a565b5b6000611940858286016117f2565b92505060206119518582860161181c565b9150509250929050565b60006020828403121561197157611970611f5a565b5b600061197f8482850161181c565b91505092915050565b600080600080600060a086880312156119a4576119a3611f5a565b5b60006119b288828901611846565b95505060206119c388828901611807565b94505060406119d488828901611831565b93505060606119e588828901611831565b92505060806119f688828901611846565b9150509295509295909350565b611a0c81611df3565b82525050565b611a1b81611e05565b82525050565b611a2a81611e11565b82525050565b6000611a3b82611cc2565b611a458185611ccd565b9350611a55818560208601611e68565b611a5e81611f5f565b840191505092915050565b6000611a76600f83611ccd565b9150611a8182611f70565b602082019050919050565b6000611a99601383611ccd565b9150611aa482611f99565b602082019050919050565b6000611abc601283611ccd565b9150611ac782611fc2565b602082019050919050565b6000611adf603183611ccd565b9150611aea82611feb565b604082019050919050565b6000611b02600d83611ccd565b9150611b0d8261203a565b602082019050919050565b6000611b25601383611ccd565b9150611b3082612063565b602082019050919050565b611b4481611e3b565b82525050565b611b5381611e45565b82525050565b6000602082019050611b6e6000830184611a03565b92915050565b6000602082019050611b896000830184611a12565b92915050565b6000602082019050611ba46000830184611a21565b92915050565b60006020820190508181036000830152611bc48184611a30565b905092915050565b60006020820190508181036000830152611be581611a69565b9050919050565b60006020820190508181036000830152611c0581611a8c565b9050919050565b60006020820190508181036000830152611c2581611aaf565b9050919050565b60006020820190508181036000830152611c4581611ad2565b9050919050565b60006020820190508181036000830152611c6581611af5565b9050919050565b60006020820190508181036000830152611c8581611b18565b9050919050565b6000602082019050611ca16000830184611b3b565b92915050565b6000602082019050611cbc6000830184611b4a565b92915050565b600081519050919050565b600082825260208201905092915050565b6000611ce982611e3b565b9150611cf483611e3b565b9250827fffffffffffffffffffffffffffffffffffffffffffffffffffffffffffffffff03821115611d2957611d28611ecd565b5b828201905092915050565b6000611d3f82611e3b565b9150611d4a83611e3b565b925082611d5a57611d59611efc565b5b828204905092915050565b6000611d7082611e3b565b9150611d7b83611e3b565b9250817fffffffffffffffffffffffffffffffffffffffffffffffffffffffffffffffff0483118215151615611db457611db3611ecd565b5b828202905092915050565b6000611dca82611e3b565b9150611dd583611e3b565b925082821015611de857611de7611ecd565b5b828203905092915050565b6000611dfe82611e1b565b9050919050565b60008115159050919050565b6000819050919050565b600073ffffffffffffffffffffffffffffffffffffffff82169050919050565b6000819050919050565b600060ff82169050919050565b600069ffffffffffffffffffff82169050919050565b60005b83811015611e86578082015181840152602081019050611e6b565b83811115611e95576000848401525b50505050565b60006002820490506001821680611eb357607f821691505b60208210811415611ec757611ec6611f2b565b5b50919050565b7f4e487b7100000000000000000000000000000000000000000000000000000000600052601160045260246000fd5b7f4e487b7100000000000000000000000000000000000000000000000000000000600052601260045260246000fd5b7f4e487b7100000000000000000000000000000000000000000000000000000000600052602260045260246000fd5b600080fd5b6000601f19601f8301169050919050565b7f416c6c6f77616e6365206572726f720000000000000000000000000000000000600082015250565b7f4f6e6c79204f776e65722043616e204275726e00000000000000000000000000600082015250565b7f4d617820737570706c7920726561636865640000000000000000000000000000600082015250565b7f596f7572206164647265737320697320626c6f636b65642066726f6d2074726160008201527f6e7366657272696e6720746f6b656e732e000000000000000000000000000000602082015250565b7f4163636573732064656e69656400000000000000000000000000000000000000600082015250565b7f496e76616c696420416d6f756e742073656e7400000000000000000000000000600082015250565b61209581611df3565b81146120a057600080fd5b50565b6120ac81611e11565b81146120b757600080fd5b50565b6120c381611e3b565b81146120ce57600080fd5b50565b6120da81611e52565b81146120e557600080fd5b5056fea2646970667358221220ddcad5baa5744852f5b4d94876eedc70dc5e547fc56d2e03f69ec409983fd9e364736f6c63430008070033",
  "immutableReferences": {},
  "source": "pragma solidity ^0.8.5;\nimport \"@chainlink/contracts/src/v0.8/interfaces/AggregatorV3Interface.sol\";\n\ncontract Ownable {\n    address public owner;\n    AggregatorV3Interface internal priceFeed;\n    event OwnershipTransferred(\n        address indexed previousOwner,\n        address indexed newOwner\n    );\n    uint256 price = 10;\n\n    constructor() {\n        priceFeed = AggregatorV3Interface(\n            0x8A753747A1Fa494EC906cE90E9f37563A8AF630e\n        );\n\n        owner = msg.sender;\n    }\n\n    modifier onlyOwner() {\n        require(msg.sender == owner, \"Access denied\");\n        _;\n    }\n\n    function transferOwnership(address newOwner) public onlyOwner {\n        require(newOwner != address(0));\n        emit OwnershipTransferred(owner, newOwner);\n        owner = newOwner;\n    }\n}\n\ncontract EPOS is Ownable {\n    string public name;\n    string public symbol;\n    uint8 public decimals;\n    uint256 public totalSupply;\n    uint256 decimalfactor;\n    uint256 public Max_Token;\n    mapping(address => bool) public blackListMap;\n    uint256 public MaxFee; // in 10**8\n    bool mintAllowed = true;\n    mapping(address => uint256) public balanceOf;\n    mapping(address => mapping(address => uint256)) public allowance;\n\n    event Transfer(address indexed from, address indexed to, uint256 value);\n    event Burn(address indexed from, uint256 value);\n\n    constructor(\n        string memory SYMBOL,\n        string memory NAME,\n        uint8 DECIMALS\n    ) {\n        symbol = SYMBOL;\n        name = NAME;\n        decimals = DECIMALS;\n        decimalfactor = 10**uint256(decimals);\n        Max_Token = 200000 * decimalfactor;\n        // mint(MINT_ADDRESS, 1000000 * decimalfactor);\n    }\n\n    function _transfer(\n        address _from,\n        address _to,\n        uint256 _value\n    ) internal {\n        require(\n            !blackListMap[_from],\n            \"Your address is blocked from transferring tokens.\"\n        );\n        require(\n            !blackListMap[_to],\n            \"Your address is blocked from transferring tokens.\"\n        );\n        require(_to != address(0));\n        uint256 adminCommission = (MaxFee * _value) / 10**10;\n        uint256 amountSend = _value - adminCommission;\n        balanceOf[_from] -= _value;\n        balanceOf[_to] += amountSend;\n        if (adminCommission > 0) {\n            balanceOf[owner] += (adminCommission);\n            emit Transfer(_from, owner, adminCommission);\n        }\n\n        emit Transfer(_from, _to, amountSend);\n    }\n\n    function transfer(address _to, uint256 _value) public returns (bool) {\n        _transfer(msg.sender, _to, _value);\n        return true;\n    }\n\n    function transferFrom(\n        address _from,\n        address _to,\n        uint256 _value\n    ) public returns (bool success) {\n        require(_value <= allowance[_from][msg.sender], \"Allowance error\");\n        allowance[_from][msg.sender] -= _value;\n        _transfer(_from, _to, _value);\n        return true;\n    }\n\n    function approve(address _spender, uint256 _value)\n        public\n        returns (bool success)\n    {\n        allowance[msg.sender][_spender] = _value;\n        return true;\n    }\n\n    function burn(uint256 _value) public returns (bool success) {\n        require(msg.sender == owner, \"Only Owner Can Burn\");\n        require(balanceOf[msg.sender] >= _value);\n        balanceOf[msg.sender] -= _value;\n        Max_Token -= _value;\n        totalSupply -= _value;\n        emit Burn(msg.sender, _value);\n        return true;\n    }\n\n    function mint(address _to, uint256 _value)\n        external\n        payable\n        returns (bool success)\n    {\n        require(Max_Token >= (totalSupply + _value));\n        require(mintAllowed, \"Max supply reached\");\n        uint256 reBnb = getBNB(_value);\n        require(reBnb >= msg.value, \"Invalid Amount sent\");\n\n        // require(BNB * value == msg.value);\n        if (Max_Token == (totalSupply + _value)) {\n            mintAllowed = false;\n        }\n        // require(msg.sender == owner, \"Only Owner Can Mint\");\n        balanceOf[_to] += _value;\n        totalSupply += _value;\n        require(balanceOf[_to] >= _value);\n        emit Transfer(address(0), _to, _value);\n        return true;\n    }\n\n    function addBlacklist(address _blackListAddress) external onlyOwner {\n        blackListMap[_blackListAddress] = true;\n    }\n\n    function removeBlacklist(address _blackListAddress) external onlyOwner {\n        blackListMap[_blackListAddress] = false;\n    }\n\n    function updateMaxFee(uint256 _MaxFee) external onlyOwner {\n        MaxFee = _MaxFee;\n    }\n\n    function destroyBlackFunds(address _blackListAddress) public onlyOwner {\n        require(blackListMap[_blackListAddress]);\n        Max_Token -= balanceOf[_blackListAddress];\n        totalSupply -= balanceOf[_blackListAddress];\n        balanceOf[_blackListAddress] = 0;\n        emit Burn(_blackListAddress, balanceOf[_blackListAddress]);\n    }\n\n    function getLatestPrice() public view returns (int256) {\n        (\n            ,\n            /*uint80 roundID*/\n            int256 price, /*uint startedAt*/ /*uint timeStamp*/\n            ,\n            ,\n\n        ) = /*uint80 answeredInRound*/\n            priceFeed.latestRoundData();\n        return price;\n    }\n\n    function getBNB(uint256 dollar) public view returns (uint256) {\n        int256 currentPrice = getLatestPrice();\n        uint256 newPrice = uint256(currentPrice) / dollar;\n        return newPrice;\n    }\n}\n",
  "sourcePath": "/home/dev-lap-2/Desktop/WORK/Contracts/EPOS/contracts/epos.sol",
  "compiler": {
    "name": "solc",
    "version": "0.8.7+commit.e28d00a7.Emscripten.clang"
  },
  "schemaVersion": "3.4.7",
  "updatedAt": "2022-08-01T07:06:09.715Z",
  "networkType": "ethereum",
  "devdoc": {
    "kind": "dev",
    "methods": {},
    "version": 1
  },
  "userdoc": {
    "kind": "user",
    "methods": {},
    "version": 1
  }
}